{
  "_format": "hh-sol-artifact-1",
  "contractName": "Fnft",
  "sourceName": "contracts/FNFT.sol",
  "abi": [
    {
      "inputs": [],
      "stateMutability": "nonpayable",
      "type": "constructor"
    },
    {
      "anonymous": false,
      "inputs": [
        {
          "indexed": true,
          "internalType": "address",
          "name": "account",
          "type": "address"
        },
        {
          "indexed": true,
          "internalType": "address",
          "name": "operator",
          "type": "address"
        },
        {
          "indexed": false,
          "internalType": "bool",
          "name": "approved",
          "type": "bool"
        }
      ],
      "name": "ApprovalForAll",
      "type": "event"
    },
    {
      "anonymous": false,
      "inputs": [
        {
          "indexed": true,
          "internalType": "address",
          "name": "operator",
          "type": "address"
        },
        {
          "indexed": true,
          "internalType": "address",
          "name": "from",
          "type": "address"
        },
        {
          "indexed": true,
          "internalType": "address",
          "name": "to",
          "type": "address"
        },
        {
          "indexed": false,
          "internalType": "uint256[]",
          "name": "ids",
          "type": "uint256[]"
        },
        {
          "indexed": false,
          "internalType": "uint256[]",
          "name": "values",
          "type": "uint256[]"
        }
      ],
      "name": "TransferBatch",
      "type": "event"
    },
    {
      "anonymous": false,
      "inputs": [
        {
          "indexed": true,
          "internalType": "address",
          "name": "operator",
          "type": "address"
        },
        {
          "indexed": true,
          "internalType": "address",
          "name": "from",
          "type": "address"
        },
        {
          "indexed": true,
          "internalType": "address",
          "name": "to",
          "type": "address"
        },
        {
          "indexed": false,
          "internalType": "uint256",
          "name": "id",
          "type": "uint256"
        },
        {
          "indexed": false,
          "internalType": "uint256",
          "name": "value",
          "type": "uint256"
        }
      ],
      "name": "TransferSingle",
      "type": "event"
    },
    {
      "anonymous": false,
      "inputs": [
        {
          "indexed": false,
          "internalType": "string",
          "name": "value",
          "type": "string"
        },
        {
          "indexed": true,
          "internalType": "uint256",
          "name": "id",
          "type": "uint256"
        }
      ],
      "name": "URI",
      "type": "event"
    },
    {
      "inputs": [
        {
          "internalType": "address",
          "name": "account",
          "type": "address"
        },
        {
          "internalType": "uint256",
          "name": "id",
          "type": "uint256"
        }
      ],
      "name": "balanceOf",
      "outputs": [
        {
          "internalType": "uint256",
          "name": "",
          "type": "uint256"
        }
      ],
      "stateMutability": "view",
      "type": "function"
    },
    {
      "inputs": [
        {
          "internalType": "address[]",
          "name": "accounts",
          "type": "address[]"
        },
        {
          "internalType": "uint256[]",
          "name": "ids",
          "type": "uint256[]"
        }
      ],
      "name": "balanceOfBatch",
      "outputs": [
        {
          "internalType": "uint256[]",
          "name": "",
          "type": "uint256[]"
        }
      ],
      "stateMutability": "view",
      "type": "function"
    },
    {
      "inputs": [
        {
          "internalType": "address",
          "name": "account",
          "type": "address"
        },
        {
          "internalType": "address",
          "name": "operator",
          "type": "address"
        }
      ],
      "name": "isApprovedForAll",
      "outputs": [
        {
          "internalType": "bool",
          "name": "",
          "type": "bool"
        }
      ],
      "stateMutability": "view",
      "type": "function"
    },
    {
      "inputs": [
        {
          "internalType": "uint256",
          "name": "id",
          "type": "uint256"
        },
        {
          "internalType": "uint256",
          "name": "amount",
          "type": "uint256"
        }
      ],
      "name": "mint",
      "outputs": [],
      "stateMutability": "nonpayable",
      "type": "function"
    },
    {
      "inputs": [
        {
          "internalType": "address",
          "name": "from",
          "type": "address"
        },
        {
          "internalType": "address",
          "name": "to",
          "type": "address"
        },
        {
          "internalType": "uint256[]",
          "name": "ids",
          "type": "uint256[]"
        },
        {
          "internalType": "uint256[]",
          "name": "amounts",
          "type": "uint256[]"
        },
        {
          "internalType": "bytes",
          "name": "data",
          "type": "bytes"
        }
      ],
      "name": "safeBatchTransferFrom",
      "outputs": [],
      "stateMutability": "nonpayable",
      "type": "function"
    },
    {
      "inputs": [
        {
          "internalType": "address",
          "name": "from",
          "type": "address"
        },
        {
          "internalType": "address",
          "name": "to",
          "type": "address"
        },
        {
          "internalType": "uint256",
          "name": "id",
          "type": "uint256"
        },
        {
          "internalType": "uint256",
          "name": "amount",
          "type": "uint256"
        },
        {
          "internalType": "bytes",
          "name": "data",
          "type": "bytes"
        }
      ],
      "name": "safeTransferFrom",
      "outputs": [],
      "stateMutability": "nonpayable",
      "type": "function"
    },
    {
      "inputs": [
        {
          "internalType": "address",
          "name": "operator",
          "type": "address"
        },
        {
          "internalType": "bool",
          "name": "approved",
          "type": "bool"
        }
      ],
      "name": "setApprovalForAll",
      "outputs": [],
      "stateMutability": "nonpayable",
      "type": "function"
    },
    {
      "inputs": [
        {
          "internalType": "string",
          "name": "newuri",
          "type": "string"
        }
      ],
      "name": "setURI",
      "outputs": [],
      "stateMutability": "nonpayable",
      "type": "function"
    },
    {
      "inputs": [
        {
          "internalType": "bytes4",
          "name": "interfaceId",
          "type": "bytes4"
        }
      ],
      "name": "supportsInterface",
      "outputs": [
        {
          "internalType": "bool",
          "name": "",
          "type": "bool"
        }
      ],
      "stateMutability": "view",
      "type": "function"
    },
    {
      "inputs": [
        {
          "internalType": "uint256",
          "name": "_tid",
          "type": "uint256"
        }
      ],
      "name": "uri",
      "outputs": [
        {
          "internalType": "string",
          "name": "",
          "type": "string"
        }
      ],
      "stateMutability": "pure",
      "type": "function"
    }
  ],
  "bytecode": "0x60806040523480156200001157600080fd5b506040518060800160405280605a815260200162002fce605a91396200003d816200004460201b60201c565b5062000175565b80600290805190602001906200005c92919062000060565b5050565b8280546200006e9062000110565b90600052602060002090601f016020900481019282620000925760008555620000de565b82601f10620000ad57805160ff1916838001178555620000de565b82800160010185558215620000de579182015b82811115620000dd578251825591602001919060010190620000c0565b5b509050620000ed9190620000f1565b5090565b5b808211156200010c576000816000905550600101620000f2565b5090565b600060028204905060018216806200012957607f821691505b6020821081141562000140576200013f62000146565b5b50919050565b7f4e487b7100000000000000000000000000000000000000000000000000000000600052602260045260246000fd5b612e4980620001856000396000f3fe608060405234801561001057600080fd5b506004361061009d5760003560e01c80632eb2c2d6116100665780632eb2c2d61461016a5780634e1273f414610186578063a22cb465146101b6578063e985e9c5146101d2578063f242432a146102025761009d565b8062fdd58e146100a257806301ffc9a7146100d257806302fe5305146101025780630e89341c1461011e5780631b2ef1ca1461014e575b600080fd5b6100bc60048036038101906100b79190611bb8565b61021e565b6040516100c991906123c4565b60405180910390f35b6100ec60048036038101906100e79190611c70565b6102e7565b6040516100f99190612207565b60405180910390f35b61011c60048036038101906101179190611cca565b6103c9565b005b61013860048036038101906101339190611d13565b6103d5565b6040516101459190612222565b60405180910390f35b61016860048036038101906101639190611d40565b610406565b005b610184600480360381019061017f9190611a12565b6104ac565b005b6101a0600480360381019061019b9190611bf8565b61054d565b6040516101ad91906121ae565b60405180910390f35b6101d060048036038101906101cb9190611b78565b610666565b005b6101ec60048036038101906101e791906119d2565b61067c565b6040516101f99190612207565b60405180910390f35b61021c60048036038101906102179190611ae1565b610710565b005b60008073ffffffffffffffffffffffffffffffffffffffff168373ffffffffffffffffffffffffffffffffffffffff16141561028f576040517f08c379a000000000000000000000000000000000000000000000000000000000815260040161028690612284565b60405180910390fd5b60008083815260200190815260200160002060008473ffffffffffffffffffffffffffffffffffffffff1673ffffffffffffffffffffffffffffffffffffffff16815260200190815260200160002054905092915050565b60007fd9b67a26000000000000000000000000000000000000000000000000000000007bffffffffffffffffffffffffffffffffffffffffffffffffffffffff1916827bffffffffffffffffffffffffffffffffffffffffffffffffffffffff191614806103b257507f0e89341c000000000000000000000000000000000000000000000000000000007bffffffffffffffffffffffffffffffffffffffffffffffffffffffff1916827bffffffffffffffffffffffffffffffffffffffffffffffffffffffff1916145b806103c257506103c1826107b1565b5b9050919050565b6103d28161081b565b50565b60606103e082610835565b6040516020016103f091906120bf565b6040516020818303038152906040529050919050565b600382111561044a576040517f08c379a0000000000000000000000000000000000000000000000000000000008152600401610441906123a4565b60405180910390fd5b6000821161048d576040517f08c379a0000000000000000000000000000000000000000000000000000000008152600401610484906123a4565b60405180910390fd5b6104a833838360405180602001604052806000815250610996565b5050565b6104b4610b2c565b73ffffffffffffffffffffffffffffffffffffffff168573ffffffffffffffffffffffffffffffffffffffff1614806104fa57506104f9856104f4610b2c565b61067c565b5b610539576040517f08c379a0000000000000000000000000000000000000000000000000000000008152600401610530906122e4565b60405180910390fd5b6105468585858585610b34565b5050505050565b60608151835114610593576040517f08c379a000000000000000000000000000000000000000000000000000000000815260040161058a90612344565b60405180910390fd5b6000835167ffffffffffffffff8111156105b0576105af61286d565b5b6040519080825280602002602001820160405280156105de5781602001602082028036833780820191505090505b50905060005b845181101561065b5761062b8582815181106106035761060261283e565b5b602002602001015185838151811061061e5761061d61283e565b5b602002602001015161021e565b82828151811061063e5761063d61283e565b5b6020026020010181815250508061065490612737565b90506105e4565b508091505092915050565b610678610671610b2c565b8383610e48565b5050565b6000600160008473ffffffffffffffffffffffffffffffffffffffff1673ffffffffffffffffffffffffffffffffffffffff16815260200190815260200160002060008373ffffffffffffffffffffffffffffffffffffffff1673ffffffffffffffffffffffffffffffffffffffff16815260200190815260200160002060009054906101000a900460ff16905092915050565b610718610b2c565b73ffffffffffffffffffffffffffffffffffffffff168573ffffffffffffffffffffffffffffffffffffffff16148061075e575061075d85610758610b2c565b61067c565b5b61079d576040517f08c379a0000000000000000000000000000000000000000000000000000000008152600401610794906122a4565b60405180910390fd5b6107aa8585858585610fb5565b5050505050565b60007f01ffc9a7000000000000000000000000000000000000000000000000000000007bffffffffffffffffffffffffffffffffffffffffffffffffffffffff1916827bffffffffffffffffffffffffffffffffffffffffffffffffffffffff1916149050919050565b80600290805190602001906108319291906116aa565b5050565b6060600082141561087d576040518060400160405280600181526020017f30000000000000000000000000000000000000000000000000000000000000008152509050610991565b600082905060005b600082146108af57808061089890612737565b915050600a826108a891906125b9565b9150610885565b60008167ffffffffffffffff8111156108cb576108ca61286d565b5b6040519080825280601f01601f1916602001820160405280156108fd5781602001600182028036833780820191505090505b5090505b6000851461098a5760018261091691906125ea565b9150600a856109259190612780565b60306109319190612563565b60f81b8183815181106109475761094661283e565b5b60200101907effffffffffffffffffffffffffffffffffffffffffffffffffffffffffffff1916908160001a905350600a8561098391906125b9565b9450610901565b8093505050505b919050565b600073ffffffffffffffffffffffffffffffffffffffff168473ffffffffffffffffffffffffffffffffffffffff161415610a06576040517f08c379a00000000000000000000000000000000000000000000000000000000081526004016109fd90612384565b60405180910390fd5b6000610a10610b2c565b9050610a3181600087610a2288611237565b610a2b88611237565b876112b1565b8260008086815260200190815260200160002060008773ffffffffffffffffffffffffffffffffffffffff1673ffffffffffffffffffffffffffffffffffffffff1681526020019081526020016000206000828254610a909190612563565b925050819055508473ffffffffffffffffffffffffffffffffffffffff16600073ffffffffffffffffffffffffffffffffffffffff168273ffffffffffffffffffffffffffffffffffffffff167fc3d58168c5ae7397731d063d5bbf3d657854427343f4c083240f7aacaa2d0f628787604051610b0e9291906123df565b60405180910390a4610b25816000878787876112b9565b5050505050565b600033905090565b8151835114610b78576040517f08c379a0000000000000000000000000000000000000000000000000000000008152600401610b6f90612364565b60405180910390fd5b600073ffffffffffffffffffffffffffffffffffffffff168473ffffffffffffffffffffffffffffffffffffffff161415610be8576040517f08c379a0000000000000000000000000000000000000000000000000000000008152600401610bdf906122c4565b60405180910390fd5b6000610bf2610b2c565b9050610c028187878787876112b1565b60005b8451811015610db3576000858281518110610c2357610c2261283e565b5b602002602001015190506000858381518110610c4257610c4161283e565b5b60200260200101519050600080600084815260200190815260200160002060008b73ffffffffffffffffffffffffffffffffffffffff1673ffffffffffffffffffffffffffffffffffffffff16815260200190815260200160002054905081811015610ce3576040517f08c379a0000000000000000000000000000000000000000000000000000000008152600401610cda90612304565b60405180910390fd5b81810360008085815260200190815260200160002060008c73ffffffffffffffffffffffffffffffffffffffff1673ffffffffffffffffffffffffffffffffffffffff168152602001908152602001600020819055508160008085815260200190815260200160002060008b73ffffffffffffffffffffffffffffffffffffffff1673ffffffffffffffffffffffffffffffffffffffff1681526020019081526020016000206000828254610d989190612563565b9250508190555050505080610dac90612737565b9050610c05565b508473ffffffffffffffffffffffffffffffffffffffff168673ffffffffffffffffffffffffffffffffffffffff168273ffffffffffffffffffffffffffffffffffffffff167f4a39dc06d4c0dbc64b70af90fd698a233a518aa5d07e595d983b8c0526c8f7fb8787604051610e2a9291906121d0565b60405180910390a4610e408187878787876114a0565b505050505050565b8173ffffffffffffffffffffffffffffffffffffffff168373ffffffffffffffffffffffffffffffffffffffff161415610eb7576040517f08c379a0000000000000000000000000000000000000000000000000000000008152600401610eae90612324565b60405180910390fd5b80600160008573ffffffffffffffffffffffffffffffffffffffff1673ffffffffffffffffffffffffffffffffffffffff16815260200190815260200160002060008473ffffffffffffffffffffffffffffffffffffffff1673ffffffffffffffffffffffffffffffffffffffff16815260200190815260200160002060006101000a81548160ff0219169083151502179055508173ffffffffffffffffffffffffffffffffffffffff168373ffffffffffffffffffffffffffffffffffffffff167f17307eab39ab6107e8899845ad3d59bd9653f200f220920489ca2b5937696c3183604051610fa89190612207565b60405180910390a3505050565b600073ffffffffffffffffffffffffffffffffffffffff168473ffffffffffffffffffffffffffffffffffffffff161415611025576040517f08c379a000000000000000000000000000000000000000000000000000000000815260040161101c906122c4565b60405180910390fd5b600061102f610b2c565b905061104f81878761104088611237565b61104988611237565b876112b1565b600080600086815260200190815260200160002060008873ffffffffffffffffffffffffffffffffffffffff1673ffffffffffffffffffffffffffffffffffffffff168152602001908152602001600020549050838110156110e6576040517f08c379a00000000000000000000000000000000000000000000000000000000081526004016110dd90612304565b60405180910390fd5b83810360008087815260200190815260200160002060008973ffffffffffffffffffffffffffffffffffffffff1673ffffffffffffffffffffffffffffffffffffffff168152602001908152602001600020819055508360008087815260200190815260200160002060008873ffffffffffffffffffffffffffffffffffffffff1673ffffffffffffffffffffffffffffffffffffffff168152602001908152602001600020600082825461119b9190612563565b925050819055508573ffffffffffffffffffffffffffffffffffffffff168773ffffffffffffffffffffffffffffffffffffffff168373ffffffffffffffffffffffffffffffffffffffff167fc3d58168c5ae7397731d063d5bbf3d657854427343f4c083240f7aacaa2d0f6288886040516112189291906123df565b60405180910390a461122e8288888888886112b9565b50505050505050565b60606000600167ffffffffffffffff8111156112565761125561286d565b5b6040519080825280602002602001820160405280156112845781602001602082028036833780820191505090505b509050828160008151811061129c5761129b61283e565b5b60200260200101818152505080915050919050565b505050505050565b6112d88473ffffffffffffffffffffffffffffffffffffffff16611687565b15611498578373ffffffffffffffffffffffffffffffffffffffff1663f23a6e6187878686866040518663ffffffff1660e01b815260040161131e959493929190612154565b602060405180830381600087803b15801561133857600080fd5b505af192505050801561136957506040513d601f19601f820116820180604052508101906113669190611c9d565b60015b61140f5761137561289c565b806308c379a014156113d2575061138a612d21565b8061139557506113d4565b806040517f08c379a00000000000000000000000000000000000000000000000000000000081526004016113c99190612222565b60405180910390fd5b505b6040517f08c379a000000000000000000000000000000000000000000000000000000000815260040161140690612244565b60405180910390fd5b63f23a6e6160e01b7bffffffffffffffffffffffffffffffffffffffffffffffffffffffff1916817bffffffffffffffffffffffffffffffffffffffffffffffffffffffff191614611496576040517f08c379a000000000000000000000000000000000000000000000000000000000815260040161148d90612264565b60405180910390fd5b505b505050505050565b6114bf8473ffffffffffffffffffffffffffffffffffffffff16611687565b1561167f578373ffffffffffffffffffffffffffffffffffffffff1663bc197c8187878686866040518663ffffffff1660e01b81526004016115059594939291906120ec565b602060405180830381600087803b15801561151f57600080fd5b505af192505050801561155057506040513d601f19601f8201168201806040525081019061154d9190611c9d565b60015b6115f65761155c61289c565b806308c379a014156115b95750611571612d21565b8061157c57506115bb565b806040517f08c379a00000000000000000000000000000000000000000000000000000000081526004016115b09190612222565b60405180910390fd5b505b6040517f08c379a00000000000000000000000000000000000000000000000000000000081526004016115ed90612244565b60405180910390fd5b63bc197c8160e01b7bffffffffffffffffffffffffffffffffffffffffffffffffffffffff1916817bffffffffffffffffffffffffffffffffffffffffffffffffffffffff19161461167d576040517f08c379a000000000000000000000000000000000000000000000000000000000815260040161167490612264565b60405180910390fd5b505b505050505050565b6000808273ffffffffffffffffffffffffffffffffffffffff163b119050919050565b8280546116b6906126d4565b90600052602060002090601f0160209004810192826116d8576000855561171f565b82601f106116f157805160ff191683800117855561171f565b8280016001018555821561171f579182015b8281111561171e578251825591602001919060010190611703565b5b50905061172c9190611730565b5090565b5b80821115611749576000816000905550600101611731565b5090565b600061176061175b8461242d565b612408565b90508083825260208201905082856020860282011115611783576117826128c3565b5b60005b858110156117b3578161179988826118b1565b845260208401935060208301925050600181019050611786565b5050509392505050565b60006117d06117cb84612459565b612408565b905080838252602082019050828560208602820111156117f3576117f26128c3565b5b60005b85811015611823578161180988826119bd565b8452602084019350602083019250506001810190506117f6565b5050509392505050565b600061184061183b84612485565b612408565b90508281526020810184848401111561185c5761185b6128c8565b5b611867848285612692565b509392505050565b600061188261187d846124b6565b612408565b90508281526020810184848401111561189e5761189d6128c8565b5b6118a9848285612692565b509392505050565b6000813590506118c081612db7565b92915050565b600082601f8301126118db576118da6128be565b5b81356118eb84826020860161174d565b91505092915050565b600082601f830112611909576119086128be565b5b81356119198482602086016117bd565b91505092915050565b60008135905061193181612dce565b92915050565b60008135905061194681612de5565b92915050565b60008151905061195b81612de5565b92915050565b600082601f830112611976576119756128be565b5b813561198684826020860161182d565b91505092915050565b600082601f8301126119a4576119a36128be565b5b81356119b484826020860161186f565b91505092915050565b6000813590506119cc81612dfc565b92915050565b600080604083850312156119e9576119e86128d2565b5b60006119f7858286016118b1565b9250506020611a08858286016118b1565b9150509250929050565b600080600080600060a08688031215611a2e57611a2d6128d2565b5b6000611a3c888289016118b1565b9550506020611a4d888289016118b1565b945050604086013567ffffffffffffffff811115611a6e57611a6d6128cd565b5b611a7a888289016118f4565b935050606086013567ffffffffffffffff811115611a9b57611a9a6128cd565b5b611aa7888289016118f4565b925050608086013567ffffffffffffffff811115611ac857611ac76128cd565b5b611ad488828901611961565b9150509295509295909350565b600080600080600060a08688031215611afd57611afc6128d2565b5b6000611b0b888289016118b1565b9550506020611b1c888289016118b1565b9450506040611b2d888289016119bd565b9350506060611b3e888289016119bd565b925050608086013567ffffffffffffffff811115611b5f57611b5e6128cd565b5b611b6b88828901611961565b9150509295509295909350565b60008060408385031215611b8f57611b8e6128d2565b5b6000611b9d858286016118b1565b9250506020611bae85828601611922565b9150509250929050565b60008060408385031215611bcf57611bce6128d2565b5b6000611bdd858286016118b1565b9250506020611bee858286016119bd565b9150509250929050565b60008060408385031215611c0f57611c0e6128d2565b5b600083013567ffffffffffffffff811115611c2d57611c2c6128cd565b5b611c39858286016118c6565b925050602083013567ffffffffffffffff811115611c5a57611c596128cd565b5b611c66858286016118f4565b9150509250929050565b600060208284031215611c8657611c856128d2565b5b6000611c9484828501611937565b91505092915050565b600060208284031215611cb357611cb26128d2565b5b6000611cc18482850161194c565b91505092915050565b600060208284031215611ce057611cdf6128d2565b5b600082013567ffffffffffffffff811115611cfe57611cfd6128cd565b5b611d0a8482850161198f565b91505092915050565b600060208284031215611d2957611d286128d2565b5b6000611d37848285016119bd565b91505092915050565b60008060408385031215611d5757611d566128d2565b5b6000611d65858286016119bd565b9250506020611d76858286016119bd565b9150509250929050565b6000611d8c83836120a1565b60208301905092915050565b611da18161261e565b82525050565b6000611db2826124f7565b611dbc8185612525565b9350611dc7836124e7565b8060005b83811015611df8578151611ddf8882611d80565b9750611dea83612518565b925050600181019050611dcb565b5085935050505092915050565b611e0e81612630565b82525050565b6000611e1f82612502565b611e298185612536565b9350611e398185602086016126a1565b611e42816128d7565b840191505092915050565b6000611e588261250d565b611e628185612547565b9350611e728185602086016126a1565b611e7b816128d7565b840191505092915050565b6000611e918261250d565b611e9b8185612558565b9350611eab8185602086016126a1565b80840191505092915050565b6000611ec4603483612547565b9150611ecf826128f5565b604082019050919050565b6000611ee7602883612547565b9150611ef282612944565b604082019050919050565b6000611f0a602b83612547565b9150611f1582612993565b604082019050919050565b6000611f2d602983612547565b9150611f38826129e2565b604082019050919050565b6000611f50605183612558565b9150611f5b82612a31565b605182019050919050565b6000611f73602583612547565b9150611f7e82612aa6565b604082019050919050565b6000611f96603283612547565b9150611fa182612af5565b604082019050919050565b6000611fb9602a83612547565b9150611fc482612b44565b604082019050919050565b6000611fdc600583612558565b9150611fe782612b93565b600582019050919050565b6000611fff602983612547565b915061200a82612bbc565b604082019050919050565b6000612022602983612547565b915061202d82612c0b565b604082019050919050565b6000612045602883612547565b915061205082612c5a565b604082019050919050565b6000612068602183612547565b915061207382612ca9565b604082019050919050565b600061208b601783612547565b915061209682612cf8565b602082019050919050565b6120aa81612688565b82525050565b6120b981612688565b82525050565b60006120ca82611f43565b91506120d68284611e86565b91506120e182611fcf565b915081905092915050565b600060a0820190506121016000830188611d98565b61210e6020830187611d98565b81810360408301526121208186611da7565b905081810360608301526121348185611da7565b905081810360808301526121488184611e14565b90509695505050505050565b600060a0820190506121696000830188611d98565b6121766020830187611d98565b61218360408301866120b0565b61219060608301856120b0565b81810360808301526121a28184611e14565b90509695505050505050565b600060208201905081810360008301526121c88184611da7565b905092915050565b600060408201905081810360008301526121ea8185611da7565b905081810360208301526121fe8184611da7565b90509392505050565b600060208201905061221c6000830184611e05565b92915050565b6000602082019050818103600083015261223c8184611e4d565b905092915050565b6000602082019050818103600083015261225d81611eb7565b9050919050565b6000602082019050818103600083015261227d81611eda565b9050919050565b6000602082019050818103600083015261229d81611efd565b9050919050565b600060208201905081810360008301526122bd81611f20565b9050919050565b600060208201905081810360008301526122dd81611f66565b9050919050565b600060208201905081810360008301526122fd81611f89565b9050919050565b6000602082019050818103600083015261231d81611fac565b9050919050565b6000602082019050818103600083015261233d81611ff2565b9050919050565b6000602082019050818103600083015261235d81612015565b9050919050565b6000602082019050818103600083015261237d81612038565b9050919050565b6000602082019050818103600083015261239d8161205b565b9050919050565b600060208201905081810360008301526123bd8161207e565b9050919050565b60006020820190506123d960008301846120b0565b92915050565b60006040820190506123f460008301856120b0565b61240160208301846120b0565b9392505050565b6000612412612423565b905061241e8282612706565b919050565b6000604051905090565b600067ffffffffffffffff8211156124485761244761286d565b5b602082029050602081019050919050565b600067ffffffffffffffff8211156124745761247361286d565b5b602082029050602081019050919050565b600067ffffffffffffffff8211156124a05761249f61286d565b5b6124a9826128d7565b9050602081019050919050565b600067ffffffffffffffff8211156124d1576124d061286d565b5b6124da826128d7565b9050602081019050919050565b6000819050602082019050919050565b600081519050919050565b600081519050919050565b600081519050919050565b6000602082019050919050565b600082825260208201905092915050565b600082825260208201905092915050565b600082825260208201905092915050565b600081905092915050565b600061256e82612688565b915061257983612688565b9250827fffffffffffffffffffffffffffffffffffffffffffffffffffffffffffffffff038211156125ae576125ad6127b1565b5b828201905092915050565b60006125c482612688565b91506125cf83612688565b9250826125df576125de6127e0565b5b828204905092915050565b60006125f582612688565b915061260083612688565b925082821015612613576126126127b1565b5b828203905092915050565b600061262982612668565b9050919050565b60008115159050919050565b60007fffffffff0000000000000000000000000000000000000000000000000000000082169050919050565b600073ffffffffffffffffffffffffffffffffffffffff82169050919050565b6000819050919050565b82818337600083830152505050565b60005b838110156126bf5780820151818401526020810190506126a4565b838111156126ce576000848401525b50505050565b600060028204905060018216806126ec57607f821691505b60208210811415612700576126ff61280f565b5b50919050565b61270f826128d7565b810181811067ffffffffffffffff8211171561272e5761272d61286d565b5b80604052505050565b600061274282612688565b91507fffffffffffffffffffffffffffffffffffffffffffffffffffffffffffffffff821415612775576127746127b1565b5b600182019050919050565b600061278b82612688565b915061279683612688565b9250826127a6576127a56127e0565b5b828206905092915050565b7f4e487b7100000000000000000000000000000000000000000000000000000000600052601160045260246000fd5b7f4e487b7100000000000000000000000000000000000000000000000000000000600052601260045260246000fd5b7f4e487b7100000000000000000000000000000000000000000000000000000000600052602260045260246000fd5b7f4e487b7100000000000000000000000000000000000000000000000000000000600052603260045260246000fd5b7f4e487b7100000000000000000000000000000000000000000000000000000000600052604160045260246000fd5b600060033d11156128bb5760046000803e6128b86000516128e8565b90505b90565b600080fd5b600080fd5b600080fd5b600080fd5b600080fd5b6000601f19601f8301169050919050565b60008160e01c9050919050565b7f455243313135353a207472616e7366657220746f206e6f6e204552433131353560008201527f526563656976657220696d706c656d656e746572000000000000000000000000602082015250565b7f455243313135353a204552433131353552656365697665722072656a6563746560008201527f6420746f6b656e73000000000000000000000000000000000000000000000000602082015250565b7f455243313135353a2062616c616e636520717565727920666f7220746865207a60008201527f65726f2061646472657373000000000000000000000000000000000000000000602082015250565b7f455243313135353a2063616c6c6572206973206e6f74206f776e6572206e6f7260008201527f20617070726f7665640000000000000000000000000000000000000000000000602082015250565b7f68747470733a2f2f697066732e696f2f697066732f6261667962656964357a6e60008201527f676432746c6d6b73616761636a79646d726d6a6a78796e636261327a716a696760208201527f6a686e6f713574336a697267707863612f000000000000000000000000000000604082015250565b7f455243313135353a207472616e7366657220746f20746865207a65726f20616460008201527f6472657373000000000000000000000000000000000000000000000000000000602082015250565b7f455243313135353a207472616e736665722063616c6c6572206973206e6f742060008201527f6f776e6572206e6f7220617070726f7665640000000000000000000000000000602082015250565b7f455243313135353a20696e73756666696369656e742062616c616e636520666f60008201527f72207472616e7366657200000000000000000000000000000000000000000000602082015250565b7f2e6a736f6e000000000000000000000000000000000000000000000000000000600082015250565b7f455243313135353a2073657474696e6720617070726f76616c2073746174757360008201527f20666f722073656c660000000000000000000000000000000000000000000000602082015250565b7f455243313135353a206163636f756e747320616e6420696473206c656e67746860008201527f206d69736d617463680000000000000000000000000000000000000000000000602082015250565b7f455243313135353a2069647320616e6420616d6f756e7473206c656e6774682060008201527f6d69736d61746368000000000000000000000000000000000000000000000000602082015250565b7f455243313135353a206d696e7420746f20746865207a65726f2061646472657360008201527f7300000000000000000000000000000000000000000000000000000000000000602082015250565b7f546f6b656e20696420646f6573206e6f74206578697374000000000000000000600082015250565b600060443d1015612d3157612db4565b612d39612423565b60043d036004823e80513d602482011167ffffffffffffffff82111715612d61575050612db4565b808201805167ffffffffffffffff811115612d7f5750505050612db4565b80602083010160043d038501811115612d9c575050505050612db4565b612dab82602001850186612706565b82955050505050505b90565b612dc08161261e565b8114612dcb57600080fd5b50565b612dd781612630565b8114612de257600080fd5b50565b612dee8161263c565b8114612df957600080fd5b50565b612e0581612688565b8114612e1057600080fd5b5056fea264697066735822122086328cef80f166e156d784ac06d81916d9d91886db697f96350304d662b521e064736f6c6343000807003368747470733a2f2f697066732e696f2f697066732f6261667962656964357a6e676432746c6d6b73616761636a79646d726d6a6a78796e636261327a716a69676a686e6f713574336a697267707863612f7b69647d2e6a736f6e",
  "linkReferences": {},
  "deployedLinkReferences": {}
}